{
  "_format": "hh-sol-artifact-1",
  "contractName": "SupplyChain",
  "sourceName": "contracts/SupplyChain.sol",
  "abi": [
    {
      "inputs": [],
      "stateMutability": "nonpayable",
      "type": "constructor"
    },
    {
      "anonymous": false,
      "inputs": [
        {
          "indexed": true,
          "internalType": "address",
          "name": "from",
          "type": "address"
        },
        {
          "indexed": true,
          "internalType": "address",
          "name": "to",
          "type": "address"
        },
        {
          "indexed": false,
          "internalType": "uint256",
          "name": "amount",
          "type": "uint256"
        },
        {
          "indexed": true,
          "internalType": "bytes32",
          "name": "productId",
          "type": "bytes32"
        }
      ],
      "name": "PaymentTransferred",
      "type": "event"
    },
    {
      "anonymous": false,
      "inputs": [
        {
          "indexed": true,
          "internalType": "bytes32",
          "name": "productId",
          "type": "bytes32"
        },
        {
          "indexed": false,
          "internalType": "string",
          "name": "name",
          "type": "string"
        },
        {
          "indexed": true,
          "internalType": "address",
          "name": "producer",
          "type": "address"
        },
        {
          "indexed": false,
          "internalType": "uint256",
          "name": "price",
          "type": "uint256"
        },
        {
          "indexed": false,
          "internalType": "uint256",
          "name": "timestamp",
          "type": "uint256"
        }
      ],
      "name": "ProductRegistered",
      "type": "event"
    },
    {
      "anonymous": false,
      "inputs": [
        {
          "indexed": true,
          "internalType": "bytes32",
          "name": "productId",
          "type": "bytes32"
        },
        {
          "indexed": false,
          "internalType": "enum SupplyChain.ProductStatus",
          "name": "oldStatus",
          "type": "uint8"
        },
        {
          "indexed": false,
          "internalType": "enum SupplyChain.ProductStatus",
          "name": "newStatus",
          "type": "uint8"
        }
      ],
      "name": "ProductStatusUpdated",
      "type": "event"
    },
    {
      "anonymous": false,
      "inputs": [
        {
          "indexed": true,
          "internalType": "bytes32",
          "name": "productId",
          "type": "bytes32"
        },
        {
          "indexed": true,
          "internalType": "address",
          "name": "from",
          "type": "address"
        },
        {
          "indexed": true,
          "internalType": "address",
          "name": "to",
          "type": "address"
        },
        {
          "indexed": false,
          "internalType": "enum SupplyChain.ProductStatus",
          "name": "status",
          "type": "uint8"
        },
        {
          "indexed": false,
          "internalType": "string",
          "name": "location",
          "type": "string"
        },
        {
          "indexed": false,
          "internalType": "uint256",
          "name": "timestamp",
          "type": "uint256"
        }
      ],
      "name": "ProductTransferred",
      "type": "event"
    },
    {
      "anonymous": false,
      "inputs": [
        {
          "indexed": true,
          "internalType": "address",
          "name": "userAddress",
          "type": "address"
        },
        {
          "indexed": false,
          "internalType": "enum SupplyChain.Role",
          "name": "role",
          "type": "uint8"
        },
        {
          "indexed": false,
          "internalType": "string",
          "name": "name",
          "type": "string"
        }
      ],
      "name": "UserRegistered",
      "type": "event"
    },
    {
      "inputs": [
        {
          "internalType": "uint256",
          "name": "",
          "type": "uint256"
        }
      ],
      "name": "allProductIds",
      "outputs": [
        {
          "internalType": "bytes32",
          "name": "",
          "type": "bytes32"
        }
      ],
      "stateMutability": "view",
      "type": "function"
    },
    {
      "inputs": [
        {
          "internalType": "bytes32",
          "name": "_productId",
          "type": "bytes32"
        },
        {
          "internalType": "string",
          "name": "_location",
          "type": "string"
        }
      ],
      "name": "confirmDelivery",
      "outputs": [],
      "stateMutability": "nonpayable",
      "type": "function"
    },
    {
      "inputs": [],
      "name": "getAllProductIds",
      "outputs": [
        {
          "internalType": "bytes32[]",
          "name": "",
          "type": "bytes32[]"
        }
      ],
      "stateMutability": "view",
      "type": "function"
    },
    {
      "inputs": [
        {
          "internalType": "bytes32",
          "name": "_productId",
          "type": "bytes32"
        }
      ],
      "name": "getProduct",
      "outputs": [
        {
          "internalType": "bytes32",
          "name": "productHash",
          "type": "bytes32"
        },
        {
          "internalType": "string",
          "name": "name",
          "type": "string"
        },
        {
          "internalType": "string",
          "name": "description",
          "type": "string"
        },
        {
          "internalType": "address",
          "name": "producer",
          "type": "address"
        },
        {
          "internalType": "address",
          "name": "currentOwner",
          "type": "address"
        },
        {
          "internalType": "uint256",
          "name": "price",
          "type": "uint256"
        },
        {
          "internalType": "uint256",
          "name": "createdAt",
          "type": "uint256"
        },
        {
          "internalType": "enum SupplyChain.ProductStatus",
          "name": "status",
          "type": "uint8"
        }
      ],
      "stateMutability": "view",
      "type": "function"
    },
    {
      "inputs": [
        {
          "internalType": "bytes32",
          "name": "_productId",
          "type": "bytes32"
        }
      ],
      "name": "getProductHistory",
      "outputs": [
        {
          "components": [
            {
              "internalType": "address",
              "name": "from",
              "type": "address"
            },
            {
              "internalType": "address",
              "name": "to",
              "type": "address"
            },
            {
              "internalType": "uint256",
              "name": "timestamp",
              "type": "uint256"
            },
            {
              "internalType": "enum SupplyChain.ProductStatus",
              "name": "status",
              "type": "uint8"
            },
            {
              "internalType": "string",
              "name": "location",
              "type": "string"
            },
            {
              "internalType": "bytes32",
              "name": "transactionHash",
              "type": "bytes32"
            }
          ],
          "internalType": "struct SupplyChain.TransferRecord[]",
          "name": "",
          "type": "tuple[]"
        }
      ],
      "stateMutability": "view",
      "type": "function"
    },
    {
      "inputs": [
        {
          "internalType": "bytes32",
          "name": "_productId",
          "type": "bytes32"
        }
      ],
      "name": "getProductHistoryLength",
      "outputs": [
        {
          "internalType": "uint256",
          "name": "",
          "type": "uint256"
        }
      ],
      "stateMutability": "view",
      "type": "function"
    },
    {
      "inputs": [],
      "name": "getTotalProducts",
      "outputs": [
        {
          "internalType": "uint256",
          "name": "",
          "type": "uint256"
        }
      ],
      "stateMutability": "view",
      "type": "function"
    },
    {
      "inputs": [
        {
          "internalType": "address",
          "name": "_userAddress",
          "type": "address"
        }
      ],
      "name": "getUser",
      "outputs": [
        {
          "internalType": "enum SupplyChain.Role",
          "name": "",
          "type": "uint8"
        },
        {
          "internalType": "string",
          "name": "",
          "type": "string"
        },
        {
          "internalType": "bool",
          "name": "",
          "type": "bool"
        }
      ],
      "stateMutability": "view",
      "type": "function"
    },
    {
      "inputs": [
        {
          "internalType": "address",
          "name": "_userAddress",
          "type": "address"
        }
      ],
      "name": "getUserProducts",
      "outputs": [
        {
          "internalType": "bytes32[]",
          "name": "",
          "type": "bytes32[]"
        }
      ],
      "stateMutability": "view",
      "type": "function"
    },
    {
      "inputs": [],
      "name": "owner",
      "outputs": [
        {
          "internalType": "address",
          "name": "",
          "type": "address"
        }
      ],
      "stateMutability": "view",
      "type": "function"
    },
    {
      "inputs": [],
      "name": "productCount",
      "outputs": [
        {
          "internalType": "uint256",
          "name": "",
          "type": "uint256"
        }
      ],
      "stateMutability": "view",
      "type": "function"
    },
    {
      "inputs": [
        {
          "internalType": "bytes32",
          "name": "",
          "type": "bytes32"
        },
        {
          "internalType": "uint256",
          "name": "",
          "type": "uint256"
        }
      ],
      "name": "productHistory",
      "outputs": [
        {
          "internalType": "address",
          "name": "from",
          "type": "address"
        },
        {
          "internalType": "address",
          "name": "to",
          "type": "address"
        },
        {
          "internalType": "uint256",
          "name": "timestamp",
          "type": "uint256"
        },
        {
          "internalType": "enum SupplyChain.ProductStatus",
          "name": "status",
          "type": "uint8"
        },
        {
          "internalType": "string",
          "name": "location",
          "type": "string"
        },
        {
          "internalType": "bytes32",
          "name": "transactionHash",
          "type": "bytes32"
        }
      ],
      "stateMutability": "view",
      "type": "function"
    },
    {
      "inputs": [
        {
          "internalType": "bytes32",
          "name": "",
          "type": "bytes32"
        }
      ],
      "name": "products",
      "outputs": [
        {
          "internalType": "bytes32",
          "name": "productHash",
          "type": "bytes32"
        },
        {
          "internalType": "string",
          "name": "name",
          "type": "string"
        },
        {
          "internalType": "string",
          "name": "description",
          "type": "string"
        },
        {
          "internalType": "address",
          "name": "producer",
          "type": "address"
        },
        {
          "internalType": "address",
          "name": "currentOwner",
          "type": "address"
        },
        {
          "internalType": "uint256",
          "name": "price",
          "type": "uint256"
        },
        {
          "internalType": "uint256",
          "name": "createdAt",
          "type": "uint256"
        },
        {
          "internalType": "enum SupplyChain.ProductStatus",
          "name": "status",
          "type": "uint8"
        },
        {
          "internalType": "bool",
          "name": "exists",
          "type": "bool"
        }
      ],
      "stateMutability": "view",
      "type": "function"
    },
    {
      "inputs": [
        {
          "internalType": "string",
          "name": "_name",
          "type": "string"
        },
        {
          "internalType": "string",
          "name": "_description",
          "type": "string"
        },
        {
          "internalType": "uint256",
          "name": "_price",
          "type": "uint256"
        },
        {
          "internalType": "string",
          "name": "_location",
          "type": "string"
        }
      ],
      "name": "registerProduct",
      "outputs": [
        {
          "internalType": "bytes32",
          "name": "",
          "type": "bytes32"
        }
      ],
      "stateMutability": "nonpayable",
      "type": "function"
    },
    {
      "inputs": [
        {
          "internalType": "enum SupplyChain.Role",
          "name": "_role",
          "type": "uint8"
        },
        {
          "internalType": "string",
          "name": "_name",
          "type": "string"
        }
      ],
      "name": "registerUser",
      "outputs": [],
      "stateMutability": "nonpayable",
      "type": "function"
    },
    {
      "inputs": [
        {
          "internalType": "bytes32",
          "name": "_productId",
          "type": "bytes32"
        },
        {
          "internalType": "address",
          "name": "_to",
          "type": "address"
        },
        {
          "internalType": "string",
          "name": "_location",
          "type": "string"
        }
      ],
      "name": "transferProduct",
      "outputs": [],
      "stateMutability": "nonpayable",
      "type": "function"
    },
    {
      "inputs": [
        {
          "internalType": "bytes32",
          "name": "_productId",
          "type": "bytes32"
        },
        {
          "internalType": "string",
          "name": "_location",
          "type": "string"
        }
      ],
      "name": "transferProductWithPayment",
      "outputs": [],
      "stateMutability": "payable",
      "type": "function"
    },
    {
      "inputs": [
        {
          "internalType": "address",
          "name": "",
          "type": "address"
        },
        {
          "internalType": "uint256",
          "name": "",
          "type": "uint256"
        }
      ],
      "name": "userProducts",
      "outputs": [
        {
          "internalType": "bytes32",
          "name": "",
          "type": "bytes32"
        }
      ],
      "stateMutability": "view",
      "type": "function"
    },
    {
      "inputs": [
        {
          "internalType": "address",
          "name": "",
          "type": "address"
        }
      ],
      "name": "users",
      "outputs": [
        {
          "internalType": "enum SupplyChain.Role",
          "name": "role",
          "type": "uint8"
        },
        {
          "internalType": "string",
          "name": "name",
          "type": "string"
        },
        {
          "internalType": "bool",
          "name": "isRegistered",
          "type": "bool"
        }
      ],
      "stateMutability": "view",
      "type": "function"
    },
    {
      "inputs": [
        {
          "internalType": "bytes32",
          "name": "_productId",
          "type": "bytes32"
        },
        {
          "internalType": "string",
          "name": "_name",
          "type": "string"
        },
        {
          "internalType": "string",
          "name": "_description",
          "type": "string"
        },
        {
          "internalType": "uint256",
          "name": "_price",
          "type": "uint256"
        },
        {
          "internalType": "address",
          "name": "_producer",
          "type": "address"
        }
      ],
      "name": "verifyProduct",
      "outputs": [
        {
          "internalType": "bool",
          "name": "",
          "type": "bool"
        }
      ],
      "stateMutability": "view",
      "type": "function"
    }
  ],
  "bytecode": "0x608060405234801561001057600080fd5b50600080546001600160a01b031916331781556001556129b4806100356000396000f3fe60806040526004361061011f5760003560e01c806393544e0c116100a0578063dde1bbcf11610064578063dde1bbcf14610367578063e0f6ef8714610387578063e43f30a41461039d578063f1b9403c146103ca578063fee7f53b146103fc57600080fd5b806393544e0c146102d4578063a81eab93146102f4578063a87430ba14610314578063cf7143b214610334578063d29bcc5c1461034757600080fd5b80636f77926b116100e75780636f77926b146101f657806379054391146102255780637a8b66d81461025a5780638b6e33941461027c5780638da5cb5b1461029c57600080fd5b80633a20e9df146101245780633d52788314610161578063570aea8a1461018f57806360b22ee9146101a4578063663c01af146101d4575b600080fd5b34801561013057600080fd5b5061014461013f36600461205e565b61041c565b6040516101589897969594939291906120f1565b60405180910390f35b34801561016d57600080fd5b5061018161017c36600461217e565b61068d565b604051908152602001610158565b34801561019b57600080fd5b50600154610181565b3480156101b057600080fd5b506101c46101bf36600461224b565b6106be565b6040519015158152602001610158565b3480156101e057600080fd5b506101e9610742565b60405161015891906122d3565b34801561020257600080fd5b50610216610211366004612317565b61079a565b60405161015893929190612349565b34801561023157600080fd5b5061024561024036600461205e565b6108ab565b6040516101589998979695949392919061237b565b34801561026657600080fd5b5061027a6102753660046123f6565b610a16565b005b34801561028857600080fd5b5061018161029736600461205e565b610d04565b3480156102a857600080fd5b506000546102bc906001600160a01b031681565b6040516001600160a01b039091168152602001610158565b3480156102e057600080fd5b506101816102ef36600461243d565b610d54565b34801561030057600080fd5b5061027a61030f3660046124cf565b61118c565b34801561032057600080fd5b5061021661032f366004612317565b611645565b61027a6103423660046123f6565b6116f7565b34801561035357600080fd5b5061027a610362366004612526565b611b75565b34801561037357600080fd5b5061018161038236600461205e565b611d45565b34801561039357600080fd5b5061018160015481565b3480156103a957600080fd5b506103bd6103b836600461205e565b611d66565b6040516101589190612564565b3480156103d657600080fd5b506103ea6103e536600461261f565b611f00565b60405161015896959493929190612641565b34801561040857600080fd5b506101e9610417366004612317565b611ff2565b60006060806000806000806000886002600082815260200190815260200160002060070160019054906101000a900460ff166104735760405162461bcd60e51b815260040161046a90612692565b60405180910390fd5b6000600260008c815260200190815260200160002060405180610120016040529081600082015481526020016001820180546104ae906126c2565b80601f01602080910402602001604051908101604052809291908181526020018280546104da906126c2565b80156105275780601f106104fc57610100808354040283529160200191610527565b820191906000526020600020905b81548152906001019060200180831161050a57829003601f168201915b50505050508152602001600282018054610540906126c2565b80601f016020809104026020016040519081016040528092919081815260200182805461056c906126c2565b80156105b95780601f1061058e576101008083540402835291602001916105b9565b820191906000526020600020905b81548152906001019060200180831161059c57829003601f168201915b505050918352505060038201546001600160a01b03908116602083015260048084015490911660408301526005830154606083015260068301546080830152600783015460a09092019160ff1690811115610616576106166120c7565b6004811115610627576106276120c7565b81526020016007820160019054906101000a900460ff1615151515815250509050806000015181602001518260400151836060015184608001518560a001518660c001518760e00151995099509950995099509950995099505050919395975091939597565b600560205281600052604060002081815481106106a957600080fd5b90600052602060002001600091509150505481565b6000858152600260205260408120600701548690610100900460ff166106f65760405162461bcd60e51b815260040161046a90612692565b60008686868660405160200161070f94939291906126f6565b60408051601f19818403018152918152815160209283012060008b81526002909352912054149250505095945050505050565b6060600680548060200260200160405190810160405280929190818152602001828054801561079057602002820191906000526020600020905b81548152602001906001019080831161077c575b5050505050905090565b6001600160a01b0381166000908152600460205260408082208151606081810190935281548492839291829060ff1660038111156107da576107da6120c7565b60038111156107eb576107eb6120c7565b81526020016001820180546107ff906126c2565b80601f016020809104026020016040519081016040528092919081815260200182805461082b906126c2565b80156108785780601f1061084d57610100808354040283529160200191610878565b820191906000526020600020905b81548152906001019060200180831161085b57829003601f168201915b50505091835250506002919091015460ff1615156020918201528151908201516040909201519097919650945092505050565b600260205260009081526040902080546001820180549192916108cd906126c2565b80601f01602080910402602001604051908101604052809291908181526020018280546108f9906126c2565b80156109465780601f1061091b57610100808354040283529160200191610946565b820191906000526020600020905b81548152906001019060200180831161092957829003601f168201915b50505050509080600201805461095b906126c2565b80601f0160208091040260200160405190810160405280929190818152602001828054610987906126c2565b80156109d45780601f106109a9576101008083540402835291602001916109d4565b820191906000526020600020905b8154815290600101906020018083116109b757829003601f168201915b505050600384015460048501546005860154600687015460079097015495966001600160a01b0393841696929093169450925060ff8082169161010090041689565b3360009081526004602052604090206002015460ff16610a485760405162461bcd60e51b815260040161046a9061273d565b6000828152600260205260409020600701548290610100900460ff16610a805760405162461bcd60e51b815260040161046a90612692565b60008381526002602052604090206004015483906001600160a01b03163314610ae35760405162461bcd60e51b81526020600482015260156024820152742737ba103a343290383937b23ab1ba1037bbb732b960591b604482015260640161046a565b60033360009081526004602052604090205460ff166003811115610b0957610b096120c7565b14610b625760405162461bcd60e51b815260206004820152602360248201527f4f6e6c7920636f6e73756d6572732063616e20636f6e6669726d2064656c697660448201526265727960e81b606482015260840161046a565b600084815260026020908152604080832060078101805460ff19811660041790915582519384018990523360601b6001600160601b031916928401929092526811115312559154915160ba1b605484015242605d8401529260ff90911691607d0160408051601f19818403018152828252805160209182012060008b81526003835283902060c0850184523380865292850192909252429284019290925290925090606081016004815260208082018a90526040918201859052835460018181018655600095865294829020845160069092020180546001600160a01b039283166001600160a01b03199182161782559285015181870180549190931693169290921790559082015160028201556060820151600382018054939492939192909160ff191690836004811115610c9a57610c9a6120c7565b021790555060808201516004820190610cb390826127bb565b5060a082015181600501555050867f4976483046b95f84baaeb206508f60e970e2d1e9429b83b814422e7ddffed939836004604051610cf392919061287b565b60405180910390a250505050505050565b6000818152600260205260408120600701548290610100900460ff16610d3c5760405162461bcd60e51b815260040161046a90612692565b60008381526003602052604090205491505b50919050565b3360009081526004602052604081206002015460ff16610d865760405162461bcd60e51b815260040161046a9061273d565b60013360009081526004602052604090205460ff166003811115610dac57610dac6120c7565b14610df95760405162461bcd60e51b815260206004820152601c60248201527f4f6e6c792070726f6475636572732063616e2063616c6c207468697300000000604482015260640161046a565b6000855111610e415760405162461bcd60e51b81526020600482015260146024820152734e616d652063616e6e6f7420626520656d70747960601b604482015260640161046a565b6000338642600154604051602001610e5c9493929190612896565b604051602081830303815290604052805190602001209050600086868633604051602001610e8d94939291906126f6565b60408051601f198184030181528282528051602091820120610120840183528084529083018a90529082018890523360608301819052608083015260a082018790524260c0830152915060e08101600081526001602091820181905260008581526002835260409020835181559183015190820190610f0c90826127bb565b5060408201516002820190610f2190826127bb565b5060608201516003820180546001600160a01b03199081166001600160a01b03938416179091556080840151600480850180549093169190931617905560a0830151600583015560c0830151600683015560e08301516007830180549192909160ff1916906001908490811115610f9a57610f9a6120c7565b021790555061010091820151600791909101805461ff00191691151590920217905560408051602081018490526001600160601b03193360601b169181019190915242605482015260009060740160408051808303601f1901815282825280516020918201206000878152600380845284822060c087018652828752338588019081524296880196875260608801848152608089018e905260a0890186905282546001808201855593865296909420885160069097020180546001600160a01b03199081166001600160a01b039889161782559151818401805490931697169690961790559451600285015590519083018054929650929390929160ff1916908360048111156110ac576110ac6120c7565b0217905550608082015160048201906110c590826127bb565b5060a091909101516005918201553360009081526020918252604081208054600181810183559183529282209092018590556006805480840182559082527ff652222313e28459528d920b65115c16c04f3efc82aaedc97be59f3f377c0d3f0185905581549190611135836128da565b9190505550336001600160a01b0316837f1cf5e7beba1036306b692fd624559611a979f2917ebe563e6d0145d3f094bd5b8a894260405161117893929190612901565b60405180910390a350909695505050505050565b3360009081526004602052604090206002015460ff166111be5760405162461bcd60e51b815260040161046a9061273d565b6000838152600260205260409020600701548390610100900460ff166111f65760405162461bcd60e51b815260040161046a90612692565b60008481526002602052604090206004015484906001600160a01b031633146112595760405162461bcd60e51b81526020600482015260156024820152742737ba103a343290383937b23ab1ba1037bbb732b960591b604482015260640161046a565b6001600160a01b0384166112af5760405162461bcd60e51b815260206004820152601960248201527f496e76616c696420726563697069656e74206164647265737300000000000000604482015260640161046a565b336001600160a01b038516036113075760405162461bcd60e51b815260206004820152601b60248201527f43616e6e6f74207472616e7366657220746f20796f757273656c660000000000604482015260640161046a565b6001600160a01b03841660009081526004602052604090206002015460ff166113725760405162461bcd60e51b815260206004820152601860248201527f526563697069656e74206e6f7420726567697374657265640000000000000000604482015260640161046a565b60008581526002602081815260408084206001600160a01b0389168552600490925283205490929160ff909116908160038111156113b2576113b26120c7565b036113c057600291506113e7565b60038160038111156113d4576113d46120c7565b036113e257600391506113e7565b600191505b600783018054600480860180546001600160a01b0319166001600160a01b038c1617905560ff8216928592909160ff1990911690600190849081111561142f5761142f6120c7565b021790555060408051602081018b90526001600160601b031933606090811b821693830193909352918a901b9091166054820152426068820152600090608801604051602081830303815290604052805190602001209050600360008b81526020019081526020016000206040518060c00160405280336001600160a01b031681526020018b6001600160a01b031681526020014281526020018660048111156114db576114db6120c7565b815260208082018c90526040918201859052835460018181018655600095865294829020845160069092020180546001600160a01b039283166001600160a01b03199182161782559285015181870180549190931693169290921790559082015160028201556060820151600382018054939492939192909160ff19169083600481111561156b5761156b6120c7565b02179055506080820151600482019061158490826127bb565b5060a091909101516005918201556001600160a01b038a166000818152602092835260408082208054600181018255908352939091209092018c9055905133908c907f583619e65750ae9f8f98dd246bd589eae2c5445f34c6271975d91a3230c4a657906115f79089908e904290612926565b60405180910390a4897f4976483046b95f84baaeb206508f60e970e2d1e9429b83b814422e7ddffed939838660405161163192919061287b565b60405180910390a250505050505050505050565b6004602052600090815260409020805460018201805460ff909216929161166b906126c2565b80601f0160208091040260200160405190810160405280929190818152602001828054611697906126c2565b80156116e45780601f106116b9576101008083540402835291602001916116e4565b820191906000526020600020905b8154815290600101906020018083116116c757829003601f168201915b5050506002909301549192505060ff1683565b3360009081526004602052604090206002015460ff166117295760405162461bcd60e51b815260040161046a9061273d565b6000828152600260205260409020600701548290610100900460ff166117615760405162461bcd60e51b815260040161046a90612692565b600083815260026020526040902060058101543410156117ba5760405162461bcd60e51b8152602060048201526014602482015273125b9cdd59999a58da595b9d081c185e5b595b9d60621b604482015260640161046a565b60048101546001600160a01b031633036118165760405162461bcd60e51b815260206004820152601b60248201527f43616e6e6f742062757920796f7572206f776e2070726f647563740000000000604482015260640161046a565b60048101546040516001600160a01b0390911690600090829034908381818185875af1925050503d8060008114611869576040519150601f19603f3d011682016040523d82523d6000602084013e61186e565b606091505b50509050806118bf5760405162461bcd60e51b815260206004820152601760248201527f5061796d656e74207472616e73666572206661696c6564000000000000000000604482015260640161046a565b3360009081526004602052604081205460ff1660028160038111156118e6576118e66120c7565b036118f4576002915061191b565b6003816003811115611908576119086120c7565b03611916576003915061191b565b600191505b600785018054600480880180546001600160a01b0319163317905560ff8216928592909160ff1990911690600190849081111561195a5761195a6120c7565b021790555060408051602081018b90526001600160601b0319606088811b8216938301939093523390921b909116605482015242606882015234608882015260009060a801604051602081830303815290604052805190602001209050600360008b81526020019081526020016000206040518060c00160405280886001600160a01b03168152602001336001600160a01b03168152602001428152602001866004811115611a0b57611a0b6120c7565b815260208082018d90526040918201859052835460018181018655600095865294829020845160069092020180546001600160a01b039283166001600160a01b03199182161782559285015181870180549190931693169290921790559082015160028201556060820151600382018054939492939192909160ff191690836004811115611a9b57611a9b6120c7565b021790555060808201516004820190611ab490826127bb565b5060a09190910151600591820155336000818152602092835260408082208054600181018255908352939091209092018c905590516001600160a01b038816908c907f583619e65750ae9f8f98dd246bd589eae2c5445f34c6271975d91a3230c4a65790611b279089908f904290612926565b60405180910390a489866001600160a01b0316336001600160a01b03167fcd2453979f199243782a4279ef801cfec10eabf6c6b42914f8cf0604e99ae62d346040516115f791815260200190565b3360009081526004602052604090206002015460ff1615611bd85760405162461bcd60e51b815260206004820152601760248201527f5573657220616c72656164792072656769737465726564000000000000000000604482015260640161046a565b6000826003811115611bec57611bec6120c7565b03611c285760405162461bcd60e51b815260206004820152600c60248201526b496e76616c696420726f6c6560a01b604482015260640161046a565b6000815111611c705760405162461bcd60e51b81526020600482015260146024820152734e616d652063616e6e6f7420626520656d70747960601b604482015260640161046a565b6040518060600160405280836003811115611c8d57611c8d6120c7565b815260208082018490526001604092830181905233600090815260049092529190208251815491929091839160ff1990911690836003811115611cd257611cd26120c7565b021790555060208201516001820190611ceb90826127bb565b50604091820151600291909101805460ff19169115159190911790555133907f04221ffa167b8d0a33647e46ee4f6728f4fe3651e4d56715ed0941b12046147b90611d399085908590612956565b60405180910390a25050565b60068181548110611d5557600080fd5b600091825260209091200154905081565b6000818152600260205260409020600701546060908290610100900460ff16611da15760405162461bcd60e51b815260040161046a90612692565b600083815260036020908152604080832080548251818502810185019093528083529193909284015b82821015611ef45760008481526020908190206040805160c0810182526006860290920180546001600160a01b039081168452600182015416938301939093526002830154908201526003820154909190606083019060ff166004811115611e3457611e346120c7565b6004811115611e4557611e456120c7565b8152602001600482018054611e59906126c2565b80601f0160208091040260200160405190810160405280929190818152602001828054611e85906126c2565b8015611ed25780601f10611ea757610100808354040283529160200191611ed2565b820191906000526020600020905b815481529060010190602001808311611eb557829003601f168201915b5050505050815260200160058201548152505081526020019060010190611dca565b50505050915050919050565b60036020528160005260406000208181548110611f1c57600080fd5b6000918252602090912060069091020180546001820154600283015460038401546004850180546001600160a01b039586169850939094169550909360ff909116929091611f69906126c2565b80601f0160208091040260200160405190810160405280929190818152602001828054611f95906126c2565b8015611fe25780601f10611fb757610100808354040283529160200191611fe2565b820191906000526020600020905b815481529060010190602001808311611fc557829003601f168201915b5050505050908060050154905086565b6001600160a01b03811660009081526005602090815260409182902080548351818402810184019094528084526060939283018282801561205257602002820191906000526020600020905b81548152602001906001019080831161203e575b50505050509050919050565b60006020828403121561207057600080fd5b5035919050565b60005b8381101561209257818101518382015260200161207a565b50506000910152565b600081518084526120b3816020860160208601612077565b601f01601f19169290920160200192915050565b634e487b7160e01b600052602160045260246000fd5b600581106120ed576120ed6120c7565b9052565b60006101008a835280602084015261210b8184018b61209b565b9050828103604084015261211f818a61209b565b6001600160a01b0389811660608601528816608085015260a0840187905260c084018690529150612155905060e08301846120dd565b9998505050505050505050565b80356001600160a01b038116811461217957600080fd5b919050565b6000806040838503121561219157600080fd5b61219a83612162565b946020939093013593505050565b634e487b7160e01b600052604160045260246000fd5b600082601f8301126121cf57600080fd5b813567ffffffffffffffff808211156121ea576121ea6121a8565b604051601f8301601f19908116603f01168101908282118183101715612212576122126121a8565b8160405283815286602085880101111561222b57600080fd5b836020870160208301376000602085830101528094505050505092915050565b600080600080600060a0868803121561226357600080fd5b85359450602086013567ffffffffffffffff8082111561228257600080fd5b61228e89838a016121be565b955060408801359150808211156122a457600080fd5b506122b1888289016121be565b935050606086013591506122c760808701612162565b90509295509295909350565b6020808252825182820181905260009190848201906040850190845b8181101561230b578351835292840192918401916001016122ef565b50909695505050505050565b60006020828403121561232957600080fd5b61233282612162565b9392505050565b600481106120ed576120ed6120c7565b6123538185612339565b606060208201526000612369606083018561209b565b90508215156040830152949350505050565b60006101208b83528060208401526123958184018c61209b565b905082810360408401526123a9818b61209b565b6001600160a01b038a811660608601528916608085015260a0840188905260c0840187905291506123df905060e08301856120dd565b8215156101008301529a9950505050505050505050565b6000806040838503121561240957600080fd5b82359150602083013567ffffffffffffffff81111561242757600080fd5b612433858286016121be565b9150509250929050565b6000806000806080858703121561245357600080fd5b843567ffffffffffffffff8082111561246b57600080fd5b612477888389016121be565b9550602087013591508082111561248d57600080fd5b612499888389016121be565b94506040870135935060608701359150808211156124b657600080fd5b506124c3878288016121be565b91505092959194509250565b6000806000606084860312156124e457600080fd5b833592506124f460208501612162565b9150604084013567ffffffffffffffff81111561251057600080fd5b61251c868287016121be565b9150509250925092565b6000806040838503121561253957600080fd5b82356004811061254857600080fd5b9150602083013567ffffffffffffffff81111561242757600080fd5b600060208083018184528085518083526040925060408601915060408160051b87010184880160005b8381101561261157888303603f19018552815180516001600160a01b039081168552888201511688850152868101518785015260608082015160c091906125d6828801826120dd565b505060808083015182828801526125ef8388018261209b565b60a094850151979094019690965250509487019492509086019060010161258d565b509098975050505050505050565b6000806040838503121561263257600080fd5b50508035926020909101359150565b6001600160a01b0387811682528616602082015260408101859052600061266b60608301866120dd565b60c0608083015261267f60c083018561209b565b90508260a0830152979650505050505050565b602080825260169082015275141c9bd91d58dd08191bd95cc81b9bdd08195e1a5cdd60521b604082015260600190565b600181811c908216806126d657607f821691505b602082108103610d4e57634e487b7160e01b600052602260045260246000fd5b60008551612708818460208a01612077565b85519083019061271c818360208a01612077565b01938452505060601b6001600160601b031916602082015260340192915050565b602080825260139082015272155cd95c881b9bdd081c9959da5cdd195c9959606a1b604082015260600190565b601f8211156127b6576000816000526020600020601f850160051c810160208610156127935750805b601f850160051c820191505b818110156127b25782815560010161279f565b5050505b505050565b815167ffffffffffffffff8111156127d5576127d56121a8565b6127e9816127e384546126c2565b8461276a565b602080601f83116001811461281e57600084156128065750858301515b600019600386901b1c1916600185901b1785556127b2565b600085815260208120601f198616915b8281101561284d5788860151825594840194600190910190840161282e565b508582101561286b5787850151600019600388901b60f8161c191681555b5050505050600190811b01905550565b6040810161288982856120dd565b61233260208301846120dd565b6bffffffffffffffffffffffff198560601b168152600084516128c0816014850160208901612077565b909101601481019390935250603482015260540192915050565b6000600182016128fa57634e487b7160e01b600052601160045260246000fd5b5060010190565b606081526000612914606083018661209b565b60208301949094525060400152919050565b61293081856120dd565b606060208201526000612946606083018561209b565b9050826040830152949350505050565b6129608184612339565b604060208201526000612976604083018461209b565b94935050505056fea26469706673582212204d45087e4762d2691794d11b601c00e5d9d526147e71e338f7a1b4c0915b4e9e64736f6c63430008180033",
  "linkReferences": {},
  "deployedLinkReferences": {}
}